:10000000000000308A003128FF00030E8301A100A8
:100010000A08A0008A010408A2007708A300780853
:10002000A4007908A5007A08A600831383128C30F7
:100030008400801C1D288C182E2822088400230888
:10004000F7002408F8002508F9002608FA0020081F
:100050008A00210E8300FF0E7F0E09008A110A120A
:10006000312803081F39830083161F149F141F159E
:100070009F1107309C008313C2308F048C14C03052
:1000800083128B001830F80004389200C7308316B2
:10009000920000308600811383128C1C52288C1031
:0800A000803088064D2853282A
:02400E003B373E
:00000001FF
;PIC16F877A
;CRC=C7BB  CREATED="11-set-22 22:40"
