:10000000000000308A00042803081F398300A00183
:10001000A10183161F149F141F159F1107309C0008
:1000200083130430870083128701053097008316FD
:100030000C1583128C0190308B00103090008316C9
:100040000C1083128E018F01F930831692003C3020
:1000500083129D0018309B000430920091010C1D0A
:100060004C28A008031D392810140C110130A000E1
:100070004C28200B4C28101000300E07A1000C114A
:100080008F018E01A00121087D3C0319071421086E
:0C0090007D3C031D0710A1012F284D2806
:02400E003B373E
:00000001FF
;PIC16F877A
;CRC=77B2  CREATED="21-abr-22 19:42"
