:10000000000000308A0019282E3084008313000875
:10001000031918280130F800F701F70B0D28F80B29
:100020000C284A30F700F70B13281628800B0A28F3
:10003000080003081F39830083161F149F141F151F
:100040009F1107309C0083138312A0010130A1008F
:100050000230A2000330A3000430A4000530A50044
:100060000630A6000730A7000830A8000930A90014
:1000700000308316880001178312AA01AB01AC017E
:10008000AD01AA012A08023C031CB528AB012B08CC
:10009000033C031CB328AC012C08053C031CB1280D
:1000A000AD012D08093C031CAF2820302A0784002D
:1000B00083130008AE008316880183122E0888007F
:1000C0000816831608128312881683168812643065
:1000D0008312AE00042020302B0784008313000815
:1000E000AE008316880183122E088800081283163A
:1000F0000812831288168316881264308312AE00A9
:10010000042020302C07840083130008AE008316DF
:10011000880183122E08880008168316081283129D
:1001200088128316881264308312AE0004202030B7
:100130002D07840083130008AE0083168801831204
:100140002E0888000812831608128312881283165C
:10015000881264308312AE000420AD0A5128AC0A24
:0E0160004C28AB0A4728AA0A42283D28B62898
:02400E003B373E
:00000001FF
;PIC16F877A
;CRC=6B60  CREATED="11-mai-22 19:23"
