:10000000000001308A002029FF00030E8301A100B7
:100010000A08A0008A010408A2007708A300780853
:10002000A4007908A5007A08A600831383128B1E0A
:100030001B280B192C28220884002308F700240809
:10004000F8002508F9002608FA0020088A00210E89
:100050008300FF0E7F0E09008A110A126928F80139
:10006000F901F701FA013D08031D39283C0803197D
:1000700053281030BE000310BA0DBB0DF70DFA0D5A
:100080003D087A02031D46283C087702031C4F28CE
:100090003C08F702031CFA033D08FA020314F80DAA
:1000A000F90DBE0B3B2808003A308400831300088A
:1000B000031968280130F800F701F70B5D28F80BE9
:1000C0005C284A30F700F70B63286628800B5A2813
:1000D00008000B1D1C290B11AD0A0319AE0A2E08CE
:1000E000263C03187C28FF3A031D7A282D080F3C74
:1000F00003187C28AE01AD012E08BB002D08BA0004
:100100000330BD00E830BC002F207808A7002E087F
:10011000BB002D08BA000330BD00E830BC002F2022
:100120007708AB007A08AC002C08BB002B08BA009B
:10013000BD016430BC002F207808A8002E08BB0049
:100140002D08BA00BD016430BC002F207708AB0039
:100150007A08AC002C08BB002B08BA00BD010A309D
:10016000BC002F207808A9002E08BB002D08BA007B
:10017000BD010A30BC002F207708AA002F302707C6
:10018000840083130008FF3ABA00831688018312A3
:100190003A08880083168613831286173230BA0015
:1001A000542083168613831286132F302807840069
:1001B00083130008FF3ABA008316880183123A08B5
:1001C000880083160613831206173230BA005420B3
:1001D00083160613831206132F3029078400831316
:1001E0000008FF3ABA008316880183123A08880093
:1001F00083168612831286163230BA005420831674
:100200008612831286122F302A0784008313000877
:10021000FF3ABA008316880183123A0888008316D1
:100220000612831206163230BA00542083160612C4
:1002300083120612063081000B118A110A121B2844
:1002400003081F398300AC01AB01AE01AD01FF30E3
:10025000B90083161F149F141F159F1107309C00AF
:1002600083133F308312AF000630B0005B30B10023
:100270004F30B2006630B3006D30B4007D30B50051
:100280000730B6007F30B7006730B8008330831680
:100290008100063083128100A0308B00013083166C
:1002A00087008312B9000030831688005629572929
:02400E003B373E
:00000001FF
;PIC16F877A
;CRC=879F  CREATED="11-mai-22 19:28"
