:10000000000000308A009A28FF00030E8301A1003F
:100010000A08A0008A010408A2007708A300780853
:10002000A4007908A5007A08A600831383128C30F7
:100030008400001C1D280C182E2822088400230888
:10004000F7002408F8002508F9002608FA0020081F
:100050008A00210E8300FF0E7F0E09008A110A120A
:100060003F280A108A100A1182073F3406345B3495
:100070004F3466346D347D3407347F346F348E01F1
:1000800085308F00EE308E002808273C031C522854
:10009000031D4E2827080E3C031C5228A70A0319EB
:1000A000A80A5C2827080F3C031D5C282808273C69
:1000B000031D5C28A801A7010C108A110A121D2833
:1000C0003030840083130008031974280130F800CD
:1000D000F701F70B6928F80B68284A30F700F70B8F
:1000E0006F287228800B66280800F801F901F701D3
:1000F000FA013308031D7F283208031999281030AC
:10010000B4000310B00DB10DF70DFA0D33087A02EB
:10011000031D8C2832087702031C95283208F70249
:10012000031CFA033308FA020314F80DF90DB40B9B
:100130008128080003081F398300A801A701AA012C
:10014000A901AB01AC01AD01AE012F10AF102F1111
:1001500083161F149F141F159F1107309C008313D3
:10016000061086140615003088000610831206104B
:10017000C0308B0483160C14B5308312900010101D
:100180008E0185308F00EE308E008618DF282F1804
:10019000DF282F142F19D32810148316061083126A
:1001A00006142F15DB282F1DDB28101083160610D0
:1001B000831206102F116430B0006020E328861CE3
:1001C000E3282F182F100619EE28AF18EE28AF14C9
:1001D000A801A7016430B0006020F228061DF228B3
:1001E000AF18AF102808B1002708B0000330B300E3
:1001F000E830B20075207808AE002808B100270862
:10020000B0000330B300E830B20075207708A900D1
:100210007A08AA002A08B1002908B000B3016430A6
:10022000B20075207808AD002A08B1002908B00096
:10023000B3016430B20075207708A9007A08AA00DB
:100240002A08B1002908B000B3010A30B2007520B5
:100250007808AC002A08B1002908B000B3010A30C0
:10026000B20075207708A9007A08AA002908AB0017
:100270002B083120B00083168801831230088800D3
:1002800083160612831206160530B000602083160E
:100290000612831206122C083120B0008316880142
:1002A0008312300888008316861283128616053062
:1002B000B000602083168612831286122D0831202A
:1002C000B000831688018312300888008316061355
:1002D000831206170530B0006020831606138312C0
:1002E00006132E083120B0008316880183123008CF
:1002F000880083168613831286170530B0006020AD
:0C0300008316861383128613C5288529F6
:02400E003B373E
:00000001FF
;PIC16F877A
;CRC=5C78  CREATED="12-out-22 16:38"
