:10000000000003308A008D2BFF00030E8301A10046
:100010000A08A0008A010408A2007708A300780853
:10002000A4007908A5007A08A60003170D08031399
:10003000A70003170F080313A80003170C080313E6
:10004000A90003170E080313AA00831383128B1E43
:100050002B280B194C28220884002308F7002408B9
:10006000F8002508F9002608FA00270803178D0074
:100070000313280803178F000313290803178C00A4
:1000800003132A0803178E00031320088A00210E89
:100090008300FF0E7F0E09008A110A125728C43A06
:1000A000F43CA031F931EC322029D0290000833012
:1000B0008100B808031D9E280F08FA000E08F700FB
:1000C0000F087A02031D5C287708B3007A08B40091
:1000D0008E018F018E013408CA003308C900CC019B
:1000E0000730CB00F801F901F701FA014C08031DB4
:1000F0007C284B08031996281030CD000310C90D39
:10010000CA0DF70DFA0D4C087A02031D89284B0819
:100110007702031C92284B08F702031CFA034C08D1
:10012000FA020314F80DF90DCD0B7E287908B400FE
:100130007808B30036147D30B8009F28B8030B113F
:100140008A110A122B2809103B08880089146400C0
:10015000891064000C30F700F70BAC28AF280800BA
:100160003B308400831300080319C7280130F800CE
:10017000BF30F7006400F70BBA28F80BB8284A30F4
:10018000F700F70BC12800006400800BB6280800B8
:100190003030BB00A3200430BB00B0203030BB00A7
:1001A000A32064002030F700F70BD428D728303084
:1001B000BB00A3203830BB00A3200130BB00A3202C
:1001C0000230BB00B02000000C30BB00A320063082
:1001D000BB00A3208A110A12E62B091444088800E8
:1001E00089146400891064000C30F700F70BF628BE
:1001F000F9280800C3010408C2004310831B4314FC
:100200003C0EF038BE00BE07E23EBF00323EC100E9
:100210003C080F39BF07BF07C107E93EC000C00750
:10022000C0073B0E0F39C007C107C00DC10DC10982
:10023000C10D3B080F39C107BE0D0730BD000A30A4
:10024000C107C003031C2029C007BF03031C2429C6
:10025000BF07BE03031C2829BE07BD03031C2C29AE
:100260003D30840083130730420542138407413038
:100270000402031942170008F700031D4729421B17
:100280004729421A5929C219472920304A29C2153B
:1002900042123030F707BC010408BB003C10831B3E
:1002A0003C147708C400ED203B08840083133C18FD
:1002B0008317840A421F372908008030BB00A3201F
:1002C0004F3003178D0000308F0003130B08BB0065
:1002D0008B13831603178C170C1400000000831275
:1002E0000313BB1B8B1703170C087F390319B8299D
:1002F0000313BB0003170D080313BC0003170F08FB
:100300000313BD003B08C400ED203C0803178D001B
:1003100003133D0803178F0003130B08BE008B1354
:10032000831603178C170C140000000083120313AC
:10033000BE1B8B1703170C0D0E0D7F390319B8293F
:100340000313BB0003170D080313BC0003170F08AA
:100350000313BD003B08C400ED203C0803178D00CB
:1003600003133D0803178F008D0A03198F0A6529AF
:10037000C3300313BB00A320023084003008BC004C
:100380002F08BB00FA202530C400ED20CB30BB0085
:10039000A320023084003408BC003308BB00FA20DC
:1003A00008008E30F7003C08F8003B08F900FA011D
:1003B000F808031DE5297908F800F9010830F7026B
:1003C000F808031DE529F701ED290310F81BEC29B6
:1003D000F90DF80DF703E529F8138A110A12F22B2B
:1003E0003B080319B52AC7003F080319B52AC702FD
:1003F000031CFF297F30C7070318B52A052A81305F
:10040000C702031CB52A0319B52A4708F700F801EB
:10041000F901FA01C6013C08C500C5173D08C40032
:100420003E08C3001930C7004208C3020318282A37
:100430000130C4020318282AC5020318282AC6025C
:100440000318282AC60AC50AC40A4208C3075A2A3A
:100450004108C4020318432A0130C5020318432A85
:10046000C6020318432AC60AC50A4108C40742083F
:10047000C307031C5A2AC40A031D5A2AC50A031DAE
:100480005A2AC60A5A2A40088038C5020318592A2F
:100490000130C6020318592AC60A40088038C50729
:1004A0004108C407031C372AC50A031D372AC60A98
:1004B000372A7A14C70B5D2A682A0310C30DC40DAE
:1004C000C50DC60D0310FA0DF90DF80DC80D142A4F
:1004D000481C702A0310F80CF90CFA0CC80C732A8B
:1004E000F7030319B52AC81B9C2A0310C30DC40DBA
:1004F000C50DC60D4208C3020318882A0130C40284
:100500000318882AC5020318882AC602031CAB2ACE
:100510004108C4020318932A0130C5020318932A24
:10052000C602031CAB2A40088038C50203189C2A67
:100530000130C602031CAB2AFA0A031DAB2AF90AD2
:10054000031DAB2AF80A031DAB2AF70A0319B52AC3
:10055000F80CF90CFA0C3C08C7004008C706C71F86
:10056000B32AF817B92AF813B92AF701F801F901E3
:10057000FA018A110A12082C3B0803192C2BC3001C
:100580003F0803192C2BC3070318CD2A7F30C30261
:10059000031C2C2B03192C2BD12A8130C3070318E1
:1005A0002C2B4308F700F801F901FA013C08C700B9
:1005B000C7173D08C6003E08C5001830C300C40177
:1005C000451CFA2A4208FA07031CEC2AF90A031D03
:1005D000EC2AF80A0319C4174108F907031CF32A87
:1005E000F80A0319C4174008BD00BD173D08F807F5
:1005F0000318C417C40DF80CF90CFA0CC70CC60C80
:10060000C50C0310C30BDF2A0130F70703182C2B8E
:10061000F81B112BC70DFA0DF90DF80DF70303198F
:100620002C2BC71F222BFA0A031D222BF90A031DAC
:10063000222BF80A031D222BF80CF90CFA0CF70AEE
:1006400003192C2B3C08C4004008C406C41F2A2BE5
:10065000F817302BF813302BF701F801F901FA01E4
:100660008A110A121F2C8E30F7003B08F7023C0853
:10067000F9003D08F800F917F70803194A2B031091
:10068000F908031D462BF80803194A2BF90CF80C3E
:10069000F70B3F2BBC1F512BF809F909F80A031976
:1006A000F90A8A110A12302C3B0803178D008316B1
:1006B0008C130C1483120C080313BA0008003208C0
:1006C000F9003108F800F90CF80CF90CF80CF90CE9
:1006D00078089B00F90C790C3039F7001D08CF39E8
:1006E00077049D0008000B08F7008B1335080317EB
:1006F0008D0003133A0803178C0083168C130C1516
:1007000055308D00AA308D008C148C18852B0C115F
:100710007708831203138B04080003081F39830032
:10072000AE01AD01AC01AB01B001AF01B201B1014D
:10073000B401B301B501B601C830B7007D30B800CF
:100740000130B90083161F149F141F159F11073025
:100750009C0083131F149F141F159F110108C0399B
:100760000538810064008330831290000030F80067
:1007700006389200FF3083169200831287100C30E7
:100780009D003208F9003108F800F90CF80CF90C5A
:10079000F80CF90C78089B00F90C790C3039F7004B
:1007A0001D08CF3977049D00FF3083168500860031
:1007B000FD30870000308800091089100915831268
:1007C00085018601870188018901C8285D218B1672
:1007D000C0308B046400361C362C3208BC00310853
:1007E000BB00D1297A08AE007908AD007808AC00CA
:1007F0007708AB002E08BE002D08BD002C08BC00F9
:100800002B08BB00C201C101C0018930BF00F02923
:100810007A08AE007908AD007808AC007708AB0024
:100820002E08BE002D08BD002C08BC002B08BB0004
:10083000C201C1014830C0008530BF00BC2A7A081F
:10084000AE007908AD007808AC007708AB002E0840
:10085000BE002D08BD002C08BC002B08BB00332BAC
:100860007908B0007808AF005D213610061C582CBE
:10087000861C722C0619482C0130BB005423B2018F
:100880003A08B100BB0154233A08B2005F23361482
:100890008619532CB5013208BA0073230130B50014
:1008A0003108BA007323C830B7000130B900EA2B11
:1008B000B70B712CB903C830B700B908031D712CF0
:1008C0000530B9003208033C031C712C031D6C2C4D
:1008D0003108FE3C031C712CB10A0319B20A5F23D4
:1008E0003614EA2BB70B882CB903C830B700B90807
:1008F000031D882C0530B900B108031D822CB208F5
:100900000319882C31080319B203B1035F2336148D
:04091000EA2B892C19
:02400E00393740
:00000001FF
;PIC16F877A
;CRC=FE2C  CREATED="12-out-22 16:38"
