:10000000000000308A00042803081F398300FF30F5
:10001000A00083161F149F141F159F1107309C000A
:1000200083138312A101A401A30122143830F80024
:1000300004389200F93083169200831220112008B0
:1000400083168700831207110C309700A014200834
:100050008316870083129D0105309D002408F90056
:100060002308F800F90CF80CF90CF80CF90C7808D6
:100070009500F90C790C3039F7001708CF3977045F
:1000800097007F1C6E287F10A10A2108903C031D59
:100090006E28A1016430A3070318A40A2408023CB7
:1000A00003185B28FF3A031D59282308E83C03186E
:1000B0005B28A401A3012408F9002308F800F90C27
:1000C000F80CF90CF80CF90C78089500F90C790C7F
:1000D0003039F7001708CF39770497007F1CA9281B
:1000E000221C7F281C08A6001B08A500A0142008BD
:1000F0008316870083129D0104309D0090282508F7
:100100001B02A7001C08A8002608031C260FA80233
:10011000A01420088316870083129D0105309D00DE
:100120007F10003022180130013AF80022107818B0
:100130002214A808031DA0282708193C0318A52885
:100140008316081083120814A92883160810831236
:0601500008104128AA2856
:02400E003B373E
:00000001FF
;PIC16F877A
;CRC=767E  CREATED="11-mai-22 19:31"
