:10000000000000308A00042803081F398300FF30F5
:10001000A00083161F149F141F159F1107309C000A
:1000200083138312A2010130A1007830F800043854
:1000300092003130831692008312A010200883169C
:100040008700831287100C309D009B018530900043
:10005000201520088316870083129701053097002A
:100060000430831687008312A0000C1D4428210B46
:100070004428A208031D44281608A4001508A3005C
:100080000C11A10A0319A20A0C1D6D282108023CBB
:10009000031D6D28A208031D6D2823081502A50065
:1000A0001608A6002408031C240FA6020C11A201A6
:1000B0000130A1002608F9002508F800F90CF80C19
:1000C000F90CF80CF90C78089B00F90C790C303914
:0E00D000F7001D08CF3977049D0035286E28F3
:02400E003B373E
:00000001FF
;PIC16F877A
;CRC=D411  CREATED="11-mai-22 19:32"
