:10000000000000308A006828883083168100E630BE
:10001000831281000B110B1D6428AC08031965289D
:100020002C0B1828831688178312A101881BA10A9C
:100030002C08013C03184E282C08093C031C4E28B0
:10004000A601831688178312AD01881BAD0A2D08FF
:100050000139A2002308A5002708F8000319342855
:100060000310A50DF80B30282908AE002808F80069
:1000700003193E280310AE0CF80B3A282E08A506EB
:100080002508A407A70AA8032708083C031D4E2833
:100090002408A600A6092308A500A4012C080A3CF0
:1000A000031D5828831688178312A001881BA00AF5
:1000B0002C080A3C03185E280030602801302C0709
:1000C000AC000B11E63081000B288A110A1294282B
:1000D00003081F3983000130A000A100A200A30083
:1000E000A401A7010730A800A90183161F149F14BB
:1000F0001F159F119C00831301308312AA008730C3
:10010000831681003D3083128100A0308B000B1DCF
:100110009728831688178312AB01881BAB0A2B0B19
:1001200094282A08AC0004280B113D308100872850
:0201300098280D
:02400E003B373E
:00000001FF
;PIC16F877A
;CRC=FBD1  CREATED="11-mai-22 19:27"
