:10000000000000308A00042803081F398300FF30F5
:10001000A00083161F149F141F159F1107309C000A
:10002000831301308312A90083309000201520082B
:100030008316870083129701053097008E018F0188
:100040008E010430831687008312A0000C1D6028E7
:10005000290B37281608A2001508A1002015200832
:1000600083168700831297010430970048282108DF
:100070001502A3001608A4002208031C220FA402E4
:1000800020152008831687008312970105309700FA
:100090000C110130A906A408031D52282308633C53
:1000A000031860282408133C031C6028031D5C28E7
:1000B0002308883C031C60282408A6002308A50008
:0400C0002628612865
:02400E003B373E
:00000001FF
;PIC16F877A
;CRC=0686  CREATED="11-mai-22 19:32"
