:10000000000000308A00192824308400831300087F
:10001000031918280130F800F701F70B0D28F80B29
:100020000C284A30F700F70B13281628800B0A28F3
:10003000080003081F39830083161F149F141F151F
:100040009F1107309C0083138312A101A201A30119
:1000500083160614861400308800061283120616D2
:1000600006183F28A108031D3F280130A1002308DE
:10007000083C0318A30AC830A40004204428061C26
:100080004428210B4428A10186185228A208031DE8
:1000900052280130A200A308031DA303C830A40006
:1000A00004205728861C5728220B5728A201230812
:1000B000F63E031898280A3E9A28831688013F3096
:1000C00083128800982883168801063083128800DE
:1000D0009828831688015B3083128800982883163D
:1000E00088014F3083128800982883168801663073
:1000F000831288009828831688016D308312880047
:100100009828831688017D308312880098288316EA
:1001100088010730831288009828831688017F3071
:10012000831288009828831688016F308312880014
:10013000302899280A108A100A1182075D2863283E
:1001400069286F2875287B28812887288D2893287F
:02400E003B373E
:00000001FF
;PIC16F877A
;CRC=0549  CREATED="15-set-22 16:36"
