:10000000000000308A00BD28710803198328831678
:10001000A0007B08031D0E2883128328A007031865
:100020001C287F30A0020318172883128328031D81
:100030001B288312832822288130A007031C222832
:10004000831283282008F700F801F901FA017208E9
:10005000A400A4177308A3007408A2001830A0001D
:10006000A101221C4B287E08FA07031C3D28F90A2F
:10007000031D3D28F80A0319A1177D08F907031C81
:100080004428F80A0319A1177C08F300F317730832
:10009000F8070318A117A10DF80CF90CFA0CA40C21
:1000A000A30CA20C0310A00B30280130F707031C8F
:1000B0005B2883128328F81B6528A40DFA0DF90D1F
:1000C000F80DF70B652883128328A41F7828FA0AF5
:1000D000031D7828F90A031D7828F80A031D7828DB
:1000E000F80CF90CFA0CF70A031D78288312832800
:1000F0007208A1007C08A106A11F8028F817882893
:10010000F81388288312F701F801F901FA01831620
:10011000831208008E30F7006C08F8006B08F900B5
:10012000FA01F808031D9E287908F800F901083043
:10013000F702F808031D9E28F701A6280310F81BF4
:10014000A528F90DF80DF7039E28F8138A110A1255
:10015000D22971308400831300080319BC280630AB
:10016000F800F701F70BB228F80BB1287B30F70045
:10017000F70BB828800BAF28080003081F3983004D
:10018000FF30E40083161F149F141F159F110730C2
:100190009C00831380308312A0002030A100A201B4
:1001A000A3018030A4005D30A5003A30A600B7302E
:1001B000A7008130A8000830A9009130AA008C3037
:1001C000AB008130AC001930AD00E930AE000E302C
:1001D000AF008130B0002030B100B201B3018130F6
:1001E000B4001930B500E930B6000E30B7008130E8
:1001F000B8000830B9009130BA008C30BB008030B4
:10020000BC005D30BD003A30BE00B730BF0080306A
:10021000C0002030C100C201C3017F30C40045309E
:10022000C5008A30C6009330C7007E30C8003B301E
:10023000C9007330CA00A030CB007C30CC00423003
:10024000CD00DE30CE004F30CF00D001D101D20141
:10025000D3017C30D4004230D500DE30D6004F30A0
:10026000D7007E30D8003B30D9007330DA00A030A0
:10027000DB007F30DC004530DD008A30DE0093306B
:10028000DF008030E0002030E100E201E301641192
:10029000640883168700831207110C3097003830EA
:1002A000F80004389200F930831692008312E414A7
:1002B00064088316870083129D0105309D008E011E
:1002C0008F0185308E008E018F018E01910180306B
:1002D00095001708CF39970001309F004E308316E4
:1002E0009F008701831287010130E500E601660D5A
:1002F000F700F70DFC30F7057708203E84008313E4
:100300000008EB00840A0008EC00840A0008ED00F5
:10031000840A0008EE00F4006D08F3006C08F20097
:100320006B08F100FE01FD014D30FC008630FB0042
:1003300004207808EC007708EB00EC0CEB0CEC0CDC
:10034000EB0CEC0C6B089500EC0C6C0C3039F700E6
:100350001708CF39770497000130E6076608103C8C
:10036000031DB4290130E6000D1CCD29E50A650BFB
:10037000BE291C08E8001B08E7000D106508023CB8
:10038000031DCD2967081B02E9001C08EA00680864
:10039000031C680FEA020D10E5016A08EC00690809
:1003A000EB008A287A08F4007908F3007808F20054
:1003B0007708F100CD30FE00CC30FD004C30FC0061
:1003C0007C30FB0004207A08EE007908ED00780804
:1003D000EC007708EB006C08EF00EF0AEF0303195D
:1003E000F529FF30F100A920EE296B08F100A920C2
:0403F0007729F92947
:02400E003B373E
:00000001FF
;PIC16F877A
;CRC=8C3B  CREATED="11-mai-22 19:17"
