:10000000000000308A006228FF00030E8301A10077
:100010000A08A0008A010408A2007708A300780853
:10002000A4007908A5007A08A600831383128B1E0A
:100030001B280B193E288C308400001C21280C182A
:1000400038288C308400801C27288C183B282208F4
:1000500084002308F7002408F8002508F900260882
:10006000FA0020088A00210E8300FF0E7F0E09008F
:100070008A110A124C288A110A1259288A110A1266
:1000800041280B1D48280B119C30810080308806C8
:100090000B118A110A1227280C1C55280C10FF304E
:1000A0008F0038308E00403088060C108A110A12FA
:1000B00027288C1C5E288C10203088068C108A1112
:1000C0000A12272803081F39830083161F149F1460
:1000D0001F159F1107309C0083130130831290007D
:1000E0008B170B178B1683160C148C1483120B159D
:1000F0000C3092000830F8000438920095308316D6
:1001000092008530831290008E01FF308F003830CE
:100110008E0083160108C739083881009C3083128D
:0E0120008100013083168600811395289628F1
:02400E003B373E
:00000001FF
;PIC16F877A
;CRC=C902  CREATED="11-mai-22 18:10"
