:10000000000004308A00D02C8E30F7006108F80020
:100010006008F900FA01F808031D18287908F800AB
:10002000F9010830F702F808031D1828F701202805
:100030000310F81B1F28F90DF80DF7031828F81303
:100040000800600803199128E80064080319912842
:10005000E807031832287F30E802031C91280319AF
:10006000912836288130E807031891286808F7009E
:10007000F801F901FA016108EC00EC176208EB00E5
:100080006308EA001830E800E9016A1C5F28670885
:10009000FA07031C5128F90A031D5128F80A03190D
:1000A000E9176608F907031C5828F80A0319E91725
:1000B0006508E200E2176208F8070318E917E90D7E
:1000C000F80CF90CFA0CEC0CEB0CEA0C0310E80B36
:1000D00044280130F70703189128F81B7628EC0D07
:1000E000FA0DF90DF80DF70303199128EC1F872875
:1000F000FA0A031D8728F90A031D8728F80A031D39
:100100008728F80CF90CFA0CF70A031991286108F2
:10011000E9006508E906E91F8F28F8179528F81304
:100120009528F701F801F901FA0108002A080319D6
:100130005B29B6002E0803195B29B602031CA5280B
:100140007F30B60703185B29AB288130B602031C49
:100150005B2903195B293608F700F801F901FA0158
:10016000B5012B08B400B4172C08B3002D08B20059
:100170001930B6003108B2020318CE280130B3029C
:100180000318CE28B4020318CE28B5020318CE28CF
:10019000B50AB40AB30A3108B20700293008B3021D
:1001A0000318E9280130B4020318E928B50203183E
:1001B000E928B50AB40A3008B3073108B207031CAE
:1001C0000029B30A031D0029B40A031D0029B50A3A
:1001D00000292F088038B4020318FF280130B50227
:1001E0000318FF28B50A2F088038B4073008B30772
:1001F000031CDD28B40A031DDD28B50ADD287A14A6
:10020000B60B03290E290310B20DB30DB40DB50DB5
:100210000310FA0DF90DF80DB70DBA28371C162981
:100220000310F80CF90CFA0CB70C1929F703031991
:100230005B29B71B42290310B20DB30DB40DB50DE8
:100240003108B20203182E290130B30203182E29F7
:10025000B40203182E29B502031C51293008B30239
:10026000031839290130B40203183929B502031CD7
:1002700051292F088038B402031842290130B502F1
:10028000031C5129FA0A031D5129F90A031D51299A
:10029000F80A031D5129F70A03195B29F80CF90C18
:1002A000FA0C2B08B6002F08B606B61F5929F81706
:1002B0005F29F8135F29F701F801F901FA018A11A2
:1002C0000A12392D80308318E506EA01EB01610836
:1002D000E9006508E90660080319522AE800F700FA
:1002E000640803195B2AE8020319F729031CB529DE
:1002F0006508EE00EE176608ED006708EC00EB01FC
:100300000310EE0CED0CEC0CEB0CE80B7F29E91F55
:100310008C296A146F2A6A1068106A166330840088
:100320008313842A6A12E91B9F29681CAA29EE0CF0
:10033000ED0CEC0CEB0CF70A03196A2AAA29EE1B48
:10034000AD290310EB0DEC0DED0DEE0DF7030319C8
:100350006A2A9F296A17172A6A136108E900E91FA8
:10036000B329EE17632AEE13632A6408E800F70046
:100370006008E8026108EE00EE176208ED0063080D
:10038000EC00EB010310EE0CED0CEC0CEB0CE80BAD
:10039000C129E91FCE29EA146F2AEA106810EA166B
:1003A000673084008313842AEA12E91BE129681C60
:1003B000EC29EE0CED0CEC0CEB0CF70A03196A2A95
:1003C000EC29EE1BEF290310EB0DEC0DED0DEE0DFE
:1003D000F70303196A2AE129EA17172AEA136508BD
:1003E000E900E91FF529EE17632AEE13632A650871
:1003F000EE00EE176608ED006708EC00E91F042A1E
:10040000EE136A156F2A6A11EB01681063308400DD
:100410008313842AE91B2D2A6108E900681C172A26
:10042000EE0CED0CEC0CEB0CF70A03196A2AEB1F2F
:10043000282AEC0A031D282AED0A031D282AEE0AA1
:10044000031D282AEE0CED0CEC0CF70A03196A2A9E
:100450006A1BAC29EA1BEE294C2A8030EE06EE1FFF
:10046000352A6F2A6508E900422A6108E900EE088A
:10047000031D422AED08031D422AEC08031D422AEF
:10048000F701632AEE1B4C2A0310EB0DEC0DED0D6A
:10049000EE0DF70B422A6A2AE91F502AEE17632A4B
:1004A000EE13632A6408F7006508EE006608ED00A5
:1004B0006708EC00632A6008F7006108EE00620834
:1004C000ED006308EC006E08F8006D08F9006C0898
:1004D000FA00A22AF701F801F901FA01A22AEB01B8
:1004E000EC09ED09EE09EB09EB0A031D7D2AEC0A84
:1004F000031D7D2AED0A0319EE0A6A188B29EA18F2
:10050000CD296A19032A322A0008EC07031C8E2A17
:10051000ED0A031D8E2AEE0A0319681484030008ED
:10052000ED07031C962AEE0A0319681484030008D9
:10053000801F803AEE07031868146A1A9229EA1A93
:10054000D4290A2A080083142D08E3002C08E200AD
:100550002B08E1002A08E000DB30E7000F30E6005E
:100560004930E5007F30E40062217A08B100790863
:10057000B0007808AF007708AE003108B500300849
:10058000B4002F08B3002E08B200C101C001BF01A2
:100590007F30BE007E30C8008030C900CA01CB0168
:1005A0007A30CC002A30CD00AA30CE00A330CF0064
:1005B0007530D000B630D1000930D200B430D3004D
:1005C0006F30D4004F30D500B630D600AA30D700F7
:1005D0006930D8008B30D900F630DA00E830DB0023
:1005E0003508DF003408DE003308DD003208DC00A7
:1005F000E301E201E101E0015D08E4006108E406D5
:10060000E41F072B03110310DD1B03143A2B5D08B5
:10061000E4006008E5005C08E5020319152BE41FFF
:100620003A2B0308013A83003A2B6108E5005D0884
:10063000E5020319212BE41F3A2B0308013A83003A
:100640003A2B6208E5005E08E50203192D2BE41F32
:100650003A2B0308013A83003A2B6308E5005F0850
:10066000E5020319392BE41F3A2B0308013A8300F2
:100670003A2B0310031C3F2B3308803AB300350894
:10068000E3003408E2003308E1003208E000833080
:10069000E700F930E6002230E5007E30E40021205A
:1006A0007A08DF007908DE007808DD007708DC00D2
:1006B0008E30F7005C08F7025D08F9005E08F8006C
:1006C000F917F70803196F2B0310F908031D6B2B9B
:1006D000F80803196F2BF90CF80CF70B642BDD1FCE
:1006E000762BF809F909F80A0319F90A7808C20003
:1006F0003508E3003408E2003308E1003208E00086
:100700008330E700F930E6002230E5007E30E40077
:1007100021207A08DF007908DE007808DD007708FC
:10072000DC00E1014208E000042083145F08E300DC
:100730005E08E2005D08E1005C08E0007A08E7007E
:100740007908E6007808E5007708E40062217A0875
:10075000C7007908C6007808C5007708C4000330D0
:10076000C205C2080319B82B4208023C031DD22B54
:100770004708E3004608E2004508E1004408E000BD
:10078000DB30E7000F30E6004930E5007F30E40061
:1007900021207A08BD007908BC007808BB007708E2
:1007A000BA00352C420B052C8314E301E201E10170
:1007B0007F30E0004708E7004608E6004508E5000E
:1007C0004408E40062217A08DF007908DE00780836
:1007D000DD007708DC005F08E3005E08E2005D08EA
:1007E000E1005C08E000DB30E7000F30E600493054
:1007F000E5007F30E40021207A08BD007908BC00C4
:100800007808BB007708BA00352C83144708E3004A
:100810004608E2004508E1004408E000E701E6017F
:10082000E5017F30E40062217A08DF007908DE000C
:100830007808DD007708DC007A08E3007908E20038
:100840007808E1007708E000DB30E7000F30E600D1
:100850004930E5007F30E40021207A08BD007908A6
:10086000BC007808BB007708BA00B901B801B7012D
:100870007F30B6003D08E3003C08E2003B08E100A1
:100880003A08E0003D08E7003C08E6003B08E500C8
:100890003A08E40021207A08BD007908BC007808F5
:1008A000BB007708BA00C3014308043C031CBC2CFE
:1008B0004108E3004008E2003F08E1003E08E00094
:1008C0003D08E7003C08E6003B08E5003A08E40084
:1008D00021207A08C1007908C0007808BF00770895
:1008E000BE00430DF700F70DFC30F7057708483ED2
:1008F000840083130008DC00840A0008DD00840AF9
:100900000008DE00840A0008DF00E3005E08E20061
:100910005D08E1005C08E0004108E7004008E600EF
:100920003F08E5003E08E4002120DD010408DC006A
:100930005D10831B5D1483103908E3003808E20062
:100940003708E1003608E0007A08E7007908E60099
:100950007808E5007708E40062215C0884008313CE
:100960005D1883177A08B9007908B8007808B700CD
:100970007708B600C30A542C4208023C0319C22C63
:10098000420BC52C3708803AB7003608F700370805
:10099000F8003808F9003908FA008A110A124A2DBD
:1009A00003081F398300A301A201A101A001FF30A8
:1009B000A50083161F149F141F159F1107309C005C
:1009C00083130830F8000438831292003130831604
:1009D00092008312A51025088316870083128710C2
:1009E0000C309D002108F9002008F800F90CF80CE3
:1009F000F90CF80CF90C78089B00F90C790C3039DB
:100A0000F7001D08CF3977049D008C1C982DA40A8F
:100A10008C102408643C0318982DE1012408E000A0
:100A20000420C330E300F530E2004830E1008130BB
:100A3000E0007A08E7007908E6007808E500770822
:100A4000E40021207A08A9007908A8007808A70006
:100A50007708A6007A08AD007908AC007808AB00EA
:100A60007708AA00B101B0014830AF008530AE0070
:100A700096287A08A9007908A8007808A7007708BE
:100A8000A6007A08AD007908AC007808AB007708BA
:100A9000AA00A32AE301E2014830E1008530E0002A
:100AA0007A08E7007908E6007808E5007708E400AE
:100AB00021207A08A9007908A8007808A7007708FB
:100AC000A600AB010408AA002B10831B2B14831073
:100AD0007A08E3007908E2007808E1007708E0008E
:100AE000E701E6014830E5008530E40062212A088C
:100AF000840083132B1883177A08A3007908A200B7
:100B00007808A1007708A000A4012108F9002008B6
:100B1000F800F90CF80CF90CF80CF90C78089B00AB
:100B2000F90C790C3039F7001D08CF3977049D0096
:040B3000052D992DC9
:02400E003B373E
:00000001FF
;PIC16F877A
;CRC=5FF9  CREATED="11-mai-22 13:04"
