:10000000000000308A00692825308400831300082E
:10001000031918280130F800F701F70B0D28F80B29
:100020000C284A30F700F70B13281628800B0A28F3
:1000300008002508F63E03185A280A3E5B28831656
:1000400088013F30831288005A28831688010630C1
:10005000831288005A28831688015B308312880037
:100060005A28831688014F30831288005A28831635
:1000700088016630831288005A28831688016D3003
:10008000831288005A28831688017D3083128800E5
:100090005A28831688010730831288005A2883164D
:1000A00088017F30831288005A28831688016F30B8
:1000B0008312880008000A108A100A1182071F287C
:1000C00025282B28312837283D28432849284F2820
:1000D000552803081F39830083161F149F141F150A
:1000E0009F1107309C0083138312A101A201A30179
:1000F000A4018316061486140030880083120618A3
:100100009A28A108031D9A280130A1002408093C5F
:10011000031D8E282308093C031996282308093C4F
:10012000031D9528A301A40A9628A30A6430A500FC
:1001300004209F28061C9F28210B9F28A1018618B8
:10014000B828A208031DB8280130A200A408031D86
:10015000AC28A3080319B428A308031DB328093049
:10016000A300A403B428A3036430A5000420BD2881
:10017000861CBD28220BBD28A2012308A50019203A
:1001800083160612831206160A30A5000420831671
:100190000612831206122408A5001920831686125F
:1001A000831286160A30A500042083168612831255
:0601B00086127F28DA2808
:02400E003B373E
:00000001FF
;PIC16F877A
;CRC=5296  CREATED="07-set-22 16:03"
