:10000000000000308A004C280A108A100A1182076A
:100010008034F23449346134323425340434F034D9
:1000200000342034F801F901F701FA013008031D0A
:100030001C282F08031936281030B1000310AD0D0D
:10004000AE0DF70DFA0D30087A02031D29282F088E
:100050007702031C32282F08F702031CFA0330082A
:10006000FA020314F80DF90DB10B1E2808002D300B
:1000700084008313000803194B280130F800F701AE
:10008000F70B4028F80B3F284A30F700F70B4628BB
:100090004928800B3D28080003081F398300A00170
:1000A000A101A301A201A501A401A801A901AA011E
:1000B000AB0183161F149F141F159F1107309C005E
:1000C000831301308312AC00831686000030880051
:1000D000011781130108C739283881008312810173
:1000E0008B100B1D7628A40A0319A50A2408AE005C
:1000F000AD0101082D07A2002E08A3000318A30AD2
:100100002308263C03189228FF3A031D8B28220857
:100110000F3C03189228A00AA501A4012008043C62
:10012000031CA0012308AE002208AD000330B0007C
:10013000E830AF0012207808A8002308AE0022089B
:10014000AD000330B000E830AF0012207708A60001
:100150007A08A7002708AE002608AD00B001643079
:10016000AF0012207808A9002708AE002608AD00CD
:10017000B0016430AF0012207708A6007A08A7000B
:100180002708AE002608AD00B0010A30AF001220EB
:100190007808AA002708AE002608AD00B0010A3092
:1001A000AF0012207708AB0028080420AD008600BD
:1001B00088140630AD003720881029080420AD00CF
:1001C000860008150630AD00372008112A080420E3
:1001D000AD00860088150630AD00372088112B0849
:1001E0000420AD00860008160630AD003720081246
:0401F0007128F92851
:02400E003B373E
:00000001FF
;PIC16F877A
;CRC=F674  CREATED="11-mai-22 19:26"
