:10000000000000308A004A28FF00030E8301A1008F
:100010000A08A0008A010408A2007708A300780853
:10002000A4007908A5007A08A600831383128C30F7
:100030008400001C1D280C182E2822088400230888
:10004000F7002408F8002508F9002608FA0020081F
:100050008A00210E8300FF0E7F0E09008A110A120A
:1000600031288E01FE308F000C308E00A70A031954
:10007000A80A2808003C03184628FF3A031D442814
:100080002708F43C03184628A801A7010C108A1180
:100090000A121D2803081F398300A801A701A9011E
:1000A000FF30AC0083161F149F141F159F110730DB
:1000B0009C00831383122C152C088316870083124F
:1000C0009701053097008E018F0185308E008E01DB
:1000D000FE308F000C308E0080308B000130831694
:1000E0008C0004308700831287010130AB00A70821
:1000F000031D8728A808031D87282808013C031C26
:10010000A428031D87282708F43C031CA4280C1DE1
:10011000A4282B0B96281508A9002C152C0883164B
:1001200087008312970104309700A128290815023F
:10013000AA002C152C08831687008312970105301E
:0C01400097000C110130AB067728A528B1
:02400E003B373E
:00000001FF
;PIC16F877A
;CRC=EBEC  CREATED="11-mai-22 20:35"
