:10000000000000308A004C280A108A100A1182076A
:100010008034F23449346134323425340434F034D9
:1000200000342034F801F901F701FA012C08031D0E
:100030001C282B08031936281030AD000310A90D19
:10004000AA0DF70DFA0D2C087A02031D29282B089A
:100050007702031C32282B08F702031CFA032C0832
:10006000FA020314F80DF90DAD0B1E280800293013
:1000700084008313000803194B280130F800F701AE
:10008000F70B4028F80B3F284A30F700F70B4628BB
:100090004928800B3D28080003081F398300A00170
:1000A000A201A10183161F149F141F159F11073071
:1000B0009C0083138312A501A601A701A8010130AA
:1000C00083168600003088000117811383128B107D
:1000D0008B1C6E28A10A0319A20A8B102208263C49
:1000E00003187E28FF3A031D792821080F3C0318C6
:1000F0007E28A00A2008043C031CA0012208AA00B4
:100100002108A9000330AC00E830AB0012207808C9
:10011000A5002208AA002108A9000330AC00E8309D
:10012000AB0012207708A3007A08A4002408AA00D4
:100130002308A900AC016430AB0012207808A600A7
:100140002408AA002308A900AC016430AB001220E7
:100150007708A3007A08A4002408AA002308A900AD
:10016000AC010A30AB0012207808A7002408AA00CE
:100170002308A900AC010A30AB0012207708A800C0
:1001800025080420A900860088140530A90037201E
:10019000881026080420A900860008150530A9004B
:1001A0003720081127080420A9008600881505308B
:1001B000A9003720881128080420A9008600081605
:0C01C0000530A900372008126828E52847
:02400E003B373E
:00000001FF
;PIC16F877A
;CRC=FC4E  CREATED="11-mai-22 19:23"
