:10000000000000308A00042803081F398300A00183
:10001000A10183161F149F141F159F1107309C0008
:100020008313023087008312870105309D008316F9
:100030000D1483128D0190308B00103090008316C8
:100040000C1083128E018F010D1C3F28A008031D88
:100050002D2810140D10A00A3F28200B3F28101047
:1000600000300E07A1000D108F018E01A0012108A4
:10007000FA3C031907142108FA3C031D0710242831
:02008000402816
:02400E003B373E
:00000001FF
;PIC16F877A
;CRC=8234  CREATED="21-abr-22 19:40"
