:10000000000000308A0067282E08F8012D0203182E
:100010000C282D08F7001828F7010830AF00AD0DA7
:10002000F70D2E0877020318F700F80DAF0B0F2815
:10003000080078082B08AD006430AE000420770873
:10004000AB0078083030031D2C28AC1C3428AC19C8
:1000500034282C1A20302F28AC112C122C14F8071D
:1000600078080C1E312899002B08AD000A30AE002C
:1000700004207708AB0078083030031D4528AC1900
:100080004A282C1C4A282C1A2030F80778080C1E05
:10009000472899003030AB072B080C1E4D289900DB
:1000A0008A110A12A4282B30840083130008031934
:1000B00066280630F800F701F70B5C28F80B5B2880
:1000C0007B30F700F70B6228800B592808000308E3
:1000D0001F398300813083169900A6309800903034
:1000E0008312980083161F149F141F159F11073049
:1000F0009C00831383128C1E7B281A08FA01A70028
:100100007A08A8002708840083132818831700089A
:10011000613C031DB9280130270784008313281888
:10012000831700086E3C031DB928A9012908033C68
:10013000031CB22823302907840083130008AA0077
:10014000AB001B30AC00192820300C1EA5289900EC
:100150002F300C1EA92899006E300C1EAD28990076
:10016000A90A96280430AA00FA30AB005320AA0B43
:10017000B428270884008313281883170008623CDA
:10018000031DD728013027078400831328188317FD
:100190000008303C031DD7288130A100AA30A200FE
:1001A0000430AA00FA30AB005320AA0BD22827084B
:1001B00084008313281883170008623C031DF52868
:1001C0000130270784008313281883170008313C67
:1001D000031DF5288130A1005530A2000430AA008B
:1001E000FA30AB005320AA0BF028270884008313B1
:1001F000281883170008633C031D0F298230A100D3
:100200000130270784008313281883170008A200F1
:100210000430AA00FA30AB005320AA0B0A297B282D
:020220001029A3
:02400E003B373E
:00000001FF
;PIC16F877A
;CRC=CE0F  CREATED="11-mai-22 19:21"
